:03000000020008F3
:0300610002000397
:050003001200EB80FE7D
:20006400222222AC82AD83AEF0FF780079007A007B00C3E89CE99DEA9EEB9F500F08B80037
:200084000909B900050ABA00E90B80E622AE82AF837C007D008E028F03C3EC9AED9B5007A7
:2000A4000CBC00F10D80EE22E4F508F509F582F583020066750801750900900000120064AE
:2000C4009001F4E4F5F0120067E4F508F509F582F5831200649001F4E4F5F01200679001B9
:0F00E400F4E4F5F00200671200AC1200B880FBE4
:06003700E478FFF6D8FD9D
:200015007900E94400601B7A009000F7780075A000E493F2A308B8000205A0D9F4DAF2759B
:02003500A0FF2A
:20003D007800E84400600A790075A000E4F309D8FC7800E84400600C7900900000E4F0A3C3
:04005D00D8FCD9FAF8
:0D0008007581091200F3E582600302000318
:0400F30075820022F0
:00000001FF
